{
  "contractName": "PersonId",
  "abi": [
    {
      "inputs": [],
      "stateMutability": "nonpayable",
      "type": "constructor"
    },
    {
      "anonymous": false,
      "inputs": [
        {
          "indexed": true,
          "internalType": "address",
          "name": "owner",
          "type": "address"
        },
        {
          "indexed": true,
          "internalType": "address",
          "name": "approved",
          "type": "address"
        },
        {
          "indexed": true,
          "internalType": "uint256",
          "name": "tokenId",
          "type": "uint256"
        }
      ],
      "name": "Approval",
      "type": "event"
    },
    {
      "anonymous": false,
      "inputs": [
        {
          "indexed": true,
          "internalType": "address",
          "name": "owner",
          "type": "address"
        },
        {
          "indexed": true,
          "internalType": "address",
          "name": "operator",
          "type": "address"
        },
        {
          "indexed": false,
          "internalType": "bool",
          "name": "approved",
          "type": "bool"
        }
      ],
      "name": "ApprovalForAll",
      "type": "event"
    },
    {
      "anonymous": false,
      "inputs": [
        {
          "indexed": true,
          "internalType": "address",
          "name": "from",
          "type": "address"
        },
        {
          "indexed": true,
          "internalType": "address",
          "name": "to",
          "type": "address"
        },
        {
          "indexed": true,
          "internalType": "uint256",
          "name": "tokenId",
          "type": "uint256"
        }
      ],
      "name": "Transfer",
      "type": "event"
    },
    {
      "inputs": [
        {
          "internalType": "address",
          "name": "to",
          "type": "address"
        },
        {
          "internalType": "uint256",
          "name": "tokenId",
          "type": "uint256"
        }
      ],
      "name": "approve",
      "outputs": [],
      "stateMutability": "nonpayable",
      "type": "function"
    },
    {
      "inputs": [
        {
          "internalType": "address",
          "name": "owner",
          "type": "address"
        }
      ],
      "name": "balanceOf",
      "outputs": [
        {
          "internalType": "uint256",
          "name": "",
          "type": "uint256"
        }
      ],
      "stateMutability": "view",
      "type": "function",
      "constant": true
    },
    {
      "inputs": [
        {
          "internalType": "uint256",
          "name": "",
          "type": "uint256"
        }
      ],
      "name": "data",
      "outputs": [
        {
          "internalType": "string",
          "name": "",
          "type": "string"
        }
      ],
      "stateMutability": "view",
      "type": "function",
      "constant": true
    },
    {
      "inputs": [
        {
          "internalType": "uint256",
          "name": "tokenId",
          "type": "uint256"
        }
      ],
      "name": "getApproved",
      "outputs": [
        {
          "internalType": "address",
          "name": "",
          "type": "address"
        }
      ],
      "stateMutability": "view",
      "type": "function",
      "constant": true
    },
    {
      "inputs": [
        {
          "internalType": "address",
          "name": "owner",
          "type": "address"
        },
        {
          "internalType": "address",
          "name": "operator",
          "type": "address"
        }
      ],
      "name": "isApprovedForAll",
      "outputs": [
        {
          "internalType": "bool",
          "name": "",
          "type": "bool"
        }
      ],
      "stateMutability": "view",
      "type": "function",
      "constant": true
    },
    {
      "inputs": [],
      "name": "name",
      "outputs": [
        {
          "internalType": "string",
          "name": "",
          "type": "string"
        }
      ],
      "stateMutability": "view",
      "type": "function",
      "constant": true
    },
    {
      "inputs": [
        {
          "internalType": "uint256",
          "name": "",
          "type": "uint256"
        }
      ],
      "name": "names",
      "outputs": [
        {
          "internalType": "string",
          "name": "",
          "type": "string"
        }
      ],
      "stateMutability": "view",
      "type": "function",
      "constant": true
    },
    {
      "inputs": [
        {
          "internalType": "uint256",
          "name": "tokenId",
          "type": "uint256"
        }
      ],
      "name": "ownerOf",
      "outputs": [
        {
          "internalType": "address",
          "name": "",
          "type": "address"
        }
      ],
      "stateMutability": "view",
      "type": "function",
      "constant": true
    },
    {
      "inputs": [
        {
          "internalType": "address",
          "name": "from",
          "type": "address"
        },
        {
          "internalType": "address",
          "name": "to",
          "type": "address"
        },
        {
          "internalType": "uint256",
          "name": "tokenId",
          "type": "uint256"
        }
      ],
      "name": "safeTransferFrom",
      "outputs": [],
      "stateMutability": "nonpayable",
      "type": "function"
    },
    {
      "inputs": [
        {
          "internalType": "address",
          "name": "from",
          "type": "address"
        },
        {
          "internalType": "address",
          "name": "to",
          "type": "address"
        },
        {
          "internalType": "uint256",
          "name": "tokenId",
          "type": "uint256"
        },
        {
          "internalType": "bytes",
          "name": "_data",
          "type": "bytes"
        }
      ],
      "name": "safeTransferFrom",
      "outputs": [],
      "stateMutability": "nonpayable",
      "type": "function"
    },
    {
      "inputs": [
        {
          "internalType": "address",
          "name": "operator",
          "type": "address"
        },
        {
          "internalType": "bool",
          "name": "approved",
          "type": "bool"
        }
      ],
      "name": "setApprovalForAll",
      "outputs": [],
      "stateMutability": "nonpayable",
      "type": "function"
    },
    {
      "inputs": [
        {
          "internalType": "bytes4",
          "name": "interfaceId",
          "type": "bytes4"
        }
      ],
      "name": "supportsInterface",
      "outputs": [
        {
          "internalType": "bool",
          "name": "",
          "type": "bool"
        }
      ],
      "stateMutability": "view",
      "type": "function",
      "constant": true
    },
    {
      "inputs": [],
      "name": "symbol",
      "outputs": [
        {
          "internalType": "string",
          "name": "",
          "type": "string"
        }
      ],
      "stateMutability": "view",
      "type": "function",
      "constant": true
    },
    {
      "inputs": [],
      "name": "tokenCounter",
      "outputs": [
        {
          "internalType": "uint256",
          "name": "",
          "type": "uint256"
        }
      ],
      "stateMutability": "view",
      "type": "function",
      "constant": true
    },
    {
      "inputs": [
        {
          "internalType": "uint256",
          "name": "tokenId",
          "type": "uint256"
        }
      ],
      "name": "tokenURI",
      "outputs": [
        {
          "internalType": "string",
          "name": "",
          "type": "string"
        }
      ],
      "stateMutability": "view",
      "type": "function",
      "constant": true
    },
    {
      "inputs": [
        {
          "internalType": "address",
          "name": "from",
          "type": "address"
        },
        {
          "internalType": "address",
          "name": "to",
          "type": "address"
        },
        {
          "internalType": "uint256",
          "name": "tokenId",
          "type": "uint256"
        }
      ],
      "name": "transferFrom",
      "outputs": [],
      "stateMutability": "nonpayable",
      "type": "function"
    },
    {
      "inputs": [
        {
          "internalType": "string",
          "name": "_name",
          "type": "string"
        },
        {
          "internalType": "string",
          "name": "_data",
          "type": "string"
        }
      ],
      "name": "mint",
      "outputs": [],
      "stateMutability": "nonpayable",
      "type": "function"
    }
  ],
  "bytecode": "0x60806040523480156200001157600080fd5b506040518060400160405280600881526020017f506572736f6e49640000000000000000000000000000000000000000000000008152506040518060400160405280600381526020017f5049440000000000000000000000000000000000000000000000000000000000815250816000908051906020019062000096929190620000c0565b508060019080519060200190620000af929190620000c0565b5050506001600881905550620001d5565b828054620000ce9062000170565b90600052602060002090601f016020900481019282620000f257600085556200013e565b82601f106200010d57805160ff19168380011785556200013e565b828001600101855582156200013e579182015b828111156200013d57825182559160200191906001019062000120565b5b5090506200014d919062000151565b5090565b5b808211156200016c57600081600090555060010162000152565b5090565b600060028204905060018216806200018957607f821691505b60208210811415620001a0576200019f620001a6565b5b50919050565b7f4e487b7100000000000000000000000000000000000000000000000000000000600052602260045260246000fd5b612ac780620001e56000396000f3fe608060405234801561001057600080fd5b506004361061010b5760003560e01c806370a08231116100a2578063b88d4fde11610071578063b88d4fde146102c8578063c87b56dd146102e4578063d082e38114610314578063e985e9c514610332578063f0ba8440146103625761010b565b806370a08231146102425780638aa0fdad1461027257806395d89b411461028e578063a22cb465146102ac5761010b565b806323b872dd116100de57806323b872dd146101aa57806342842e0e146101c65780634622ab03146101e25780636352211e146102125761010b565b806301ffc9a71461011057806306fdde0314610140578063081812fc1461015e578063095ea7b31461018e575b600080fd5b61012a60048036038101906101259190611c2c565b610392565b6040516101379190612058565b60405180910390f35b610148610474565b6040516101559190612073565b60405180910390f35b61017860048036038101906101739190611cea565b610506565b6040516101859190611ff1565b60405180910390f35b6101a860048036038101906101a39190611bf0565b61058b565b005b6101c460048036038101906101bf9190611aea565b6106a3565b005b6101e060048036038101906101db9190611aea565b610703565b005b6101fc60048036038101906101f79190611cea565b610723565b6040516102099190612073565b60405180910390f35b61022c60048036038101906102279190611cea565b6107cf565b6040516102399190611ff1565b60405180910390f35b61025c60048036038101906102579190611a85565b610881565b6040516102699190612255565b60405180910390f35b61028c60048036038101906102879190611c7e565b610939565b005b6102966109d9565b6040516102a39190612073565b60405180910390f35b6102c660048036038101906102c19190611bb4565b610a6b565b005b6102e260048036038101906102dd9190611b39565b610bec565b005b6102fe60048036038101906102f99190611cea565b610c4e565b60405161030b9190612073565b60405180910390f35b61031c610cf5565b6040516103299190612255565b60405180910390f35b61034c60048036038101906103479190611aae565b610cfb565b6040516103599190612058565b60405180910390f35b61037c60048036038101906103779190611cea565b610d8f565b6040516103899190612073565b60405180910390f35b60007f80ac58cd000000000000000000000000000000000000000000000000000000007bffffffffffffffffffffffffffffffffffffffffffffffffffffffff1916827bffffffffffffffffffffffffffffffffffffffffffffffffffffffff1916148061045d57507f5b5e139f000000000000000000000000000000000000000000000000000000007bffffffffffffffffffffffffffffffffffffffffffffffffffffffff1916827bffffffffffffffffffffffffffffffffffffffffffffffffffffffff1916145b8061046d575061046c82610e3b565b5b9050919050565b606060008054610483906124ab565b80601f01602080910402602001604051908101604052809291908181526020018280546104af906124ab565b80156104fc5780601f106104d1576101008083540402835291602001916104fc565b820191906000526020600020905b8154815290600101906020018083116104df57829003601f168201915b5050505050905090565b600061051182610ea5565b610550576040517f08c379a0000000000000000000000000000000000000000000000000000000008152600401610547906121b5565b60405180910390fd5b6004600083815260200190815260200160002060009054906101000a900473ffffffffffffffffffffffffffffffffffffffff169050919050565b6000610596826107cf565b90508073ffffffffffffffffffffffffffffffffffffffff168373ffffffffffffffffffffffffffffffffffffffff161415610607576040517f08c379a00000000000000000000000000000000000000000000000000000000081526004016105fe90612215565b60405180910390fd5b8073ffffffffffffffffffffffffffffffffffffffff16610626610f11565b73ffffffffffffffffffffffffffffffffffffffff16148061065557506106548161064f610f11565b610cfb565b5b610694576040517f08c379a000000000000000000000000000000000000000000000000000000000815260040161068b90612135565b60405180910390fd5b61069e8383610f19565b505050565b6106b46106ae610f11565b82610fd2565b6106f3576040517f08c379a00000000000000000000000000000000000000000000000000000000081526004016106ea90612235565b60405180910390fd5b6106fe8383836110b0565b505050565b61071e83838360405180602001604052806000815250610bec565b505050565b6006818154811061073357600080fd5b90600052602060002001600091509050805461074e906124ab565b80601f016020809104026020016040519081016040528092919081815260200182805461077a906124ab565b80156107c75780601f1061079c576101008083540402835291602001916107c7565b820191906000526020600020905b8154815290600101906020018083116107aa57829003601f168201915b505050505081565b6000806002600084815260200190815260200160002060009054906101000a900473ffffffffffffffffffffffffffffffffffffffff169050600073ffffffffffffffffffffffffffffffffffffffff168173ffffffffffffffffffffffffffffffffffffffff161415610878576040517f08c379a000000000000000000000000000000000000000000000000000000000815260040161086f90612175565b60405180910390fd5b80915050919050565b60008073ffffffffffffffffffffffffffffffffffffffff168273ffffffffffffffffffffffffffffffffffffffff1614156108f2576040517f08c379a00000000000000000000000000000000000000000000000000000000081526004016108e990612155565b60405180910390fd5b600360008373ffffffffffffffffffffffffffffffffffffffff1673ffffffffffffffffffffffffffffffffffffffff168152602001908152602001600020549050919050565b6006829080600181540180825580915050600190039060005260206000200160009091909190915090805190602001906109749291906118a9565b506007819080600181540180825580915050600190039060005260206000200160009091909190915090805190602001906109b09291906118a9565b506109bd3360085461130c565b600860008154809291906109d09061250e565b91905055505050565b6060600180546109e8906124ab565b80601f0160208091040260200160405190810160405280929190818152602001828054610a14906124ab565b8015610a615780601f10610a3657610100808354040283529160200191610a61565b820191906000526020600020905b815481529060010190602001808311610a4457829003601f168201915b5050505050905090565b610a73610f11565b73ffffffffffffffffffffffffffffffffffffffff168273ffffffffffffffffffffffffffffffffffffffff161415610ae1576040517f08c379a0000000000000000000000000000000000000000000000000000000008152600401610ad8906120f5565b60405180910390fd5b8060056000610aee610f11565b73ffffffffffffffffffffffffffffffffffffffff1673ffffffffffffffffffffffffffffffffffffffff16815260200190815260200160002060008473ffffffffffffffffffffffffffffffffffffffff1673ffffffffffffffffffffffffffffffffffffffff16815260200190815260200160002060006101000a81548160ff0219169083151502179055508173ffffffffffffffffffffffffffffffffffffffff16610b9b610f11565b73ffffffffffffffffffffffffffffffffffffffff167f17307eab39ab6107e8899845ad3d59bd9653f200f220920489ca2b5937696c3183604051610be09190612058565b60405180910390a35050565b610bfd610bf7610f11565b83610fd2565b610c3c576040517f08c379a0000000000000000000000000000000000000000000000000000000008152600401610c3390612235565b60405180910390fd5b610c48848484846114da565b50505050565b6060610c5982610ea5565b610c98576040517f08c379a0000000000000000000000000000000000000000000000000000000008152600401610c8f906121f5565b60405180910390fd5b6000610ca2611536565b90506000815111610cc25760405180602001604052806000815250610ced565b80610ccc8461154d565b604051602001610cdd929190611fcd565b6040516020818303038152906040525b915050919050565b60085481565b6000600560008473ffffffffffffffffffffffffffffffffffffffff1673ffffffffffffffffffffffffffffffffffffffff16815260200190815260200160002060008373ffffffffffffffffffffffffffffffffffffffff1673ffffffffffffffffffffffffffffffffffffffff16815260200190815260200160002060009054906101000a900460ff16905092915050565b60078181548110610d9f57600080fd5b906000526020600020016000915090508054610dba906124ab565b80601f0160208091040260200160405190810160405280929190818152602001828054610de6906124ab565b8015610e335780601f10610e0857610100808354040283529160200191610e33565b820191906000526020600020905b815481529060010190602001808311610e1657829003601f168201915b505050505081565b60007f01ffc9a7000000000000000000000000000000000000000000000000000000007bffffffffffffffffffffffffffffffffffffffffffffffffffffffff1916827bffffffffffffffffffffffffffffffffffffffffffffffffffffffff1916149050919050565b60008073ffffffffffffffffffffffffffffffffffffffff166002600084815260200190815260200160002060009054906101000a900473ffffffffffffffffffffffffffffffffffffffff1673ffffffffffffffffffffffffffffffffffffffff1614159050919050565b600033905090565b816004600083815260200190815260200160002060006101000a81548173ffffffffffffffffffffffffffffffffffffffff021916908373ffffffffffffffffffffffffffffffffffffffff160217905550808273ffffffffffffffffffffffffffffffffffffffff16610f8c836107cf565b73ffffffffffffffffffffffffffffffffffffffff167f8c5be1e5ebec7d5bd14f71427d1e84f3dd0314c0f7b2291e5b200ac8c7c3b92560405160405180910390a45050565b6000610fdd82610ea5565b61101c576040517f08c379a000000000000000000000000000000000000000000000000000000000815260040161101390612115565b60405180910390fd5b6000611027836107cf565b90508073ffffffffffffffffffffffffffffffffffffffff168473ffffffffffffffffffffffffffffffffffffffff16148061109657508373ffffffffffffffffffffffffffffffffffffffff1661107e84610506565b73ffffffffffffffffffffffffffffffffffffffff16145b806110a757506110a68185610cfb565b5b91505092915050565b8273ffffffffffffffffffffffffffffffffffffffff166110d0826107cf565b73ffffffffffffffffffffffffffffffffffffffff1614611126576040517f08c379a000000000000000000000000000000000000000000000000000000000815260040161111d906121d5565b60405180910390fd5b600073ffffffffffffffffffffffffffffffffffffffff168273ffffffffffffffffffffffffffffffffffffffff161415611196576040517f08c379a000000000000000000000000000000000000000000000000000000000815260040161118d906120d5565b60405180910390fd5b6111a18383836116fa565b6111ac600082610f19565b6001600360008573ffffffffffffffffffffffffffffffffffffffff1673ffffffffffffffffffffffffffffffffffffffff16815260200190815260200160002060008282546111fc91906123c1565b925050819055506001600360008473ffffffffffffffffffffffffffffffffffffffff1673ffffffffffffffffffffffffffffffffffffffff1681526020019081526020016000206000828254611253919061233a565b92505081905550816002600083815260200190815260200160002060006101000a81548173ffffffffffffffffffffffffffffffffffffffff021916908373ffffffffffffffffffffffffffffffffffffffff160217905550808273ffffffffffffffffffffffffffffffffffffffff168473ffffffffffffffffffffffffffffffffffffffff167fddf252ad1be2c89b69c2b068fc378daa952ba7f163c4a11628f55a4df523b3ef60405160405180910390a4505050565b600073ffffffffffffffffffffffffffffffffffffffff168273ffffffffffffffffffffffffffffffffffffffff16141561137c576040517f08c379a000000000000000000000000000000000000000000000000000000000815260040161137390612195565b60405180910390fd5b61138581610ea5565b156113c5576040517f08c379a00000000000000000000000000000000000000000000000000000000081526004016113bc906120b5565b60405180910390fd5b6113d1600083836116fa565b6001600360008473ffffffffffffffffffffffffffffffffffffffff1673ffffffffffffffffffffffffffffffffffffffff1681526020019081526020016000206000828254611421919061233a565b92505081905550816002600083815260200190815260200160002060006101000a81548173ffffffffffffffffffffffffffffffffffffffff021916908373ffffffffffffffffffffffffffffffffffffffff160217905550808273ffffffffffffffffffffffffffffffffffffffff16600073ffffffffffffffffffffffffffffffffffffffff167fddf252ad1be2c89b69c2b068fc378daa952ba7f163c4a11628f55a4df523b3ef60405160405180910390a45050565b6114e58484846110b0565b6114f1848484846116ff565b611530576040517f08c379a000000000000000000000000000000000000000000000000000000000815260040161152790612095565b60405180910390fd5b50505050565b606060405180602001604052806000815250905090565b60606000821415611595576040518060400160405280600181526020017f300000000000000000000000000000000000000000000000000000000000000081525090506116f5565b600082905060005b600082146115c75780806115b09061250e565b915050600a826115c09190612390565b915061159d565b60008167ffffffffffffffff811115611609577f4e487b7100000000000000000000000000000000000000000000000000000000600052604160045260246000fd5b6040519080825280601f01601f19166020018201604052801561163b5781602001600182028036833780820191505090505b5090505b600085146116ee5760018261165491906123c1565b9150600a856116639190612557565b603061166f919061233a565b60f81b8183815181106116ab577f4e487b7100000000000000000000000000000000000000000000000000000000600052603260045260246000fd5b60200101907effffffffffffffffffffffffffffffffffffffffffffffffffffffffffffff1916908160001a905350600a856116e79190612390565b945061163f565b8093505050505b919050565b505050565b60006117208473ffffffffffffffffffffffffffffffffffffffff16611896565b15611889578373ffffffffffffffffffffffffffffffffffffffff1663150b7a02611749610f11565b8786866040518563ffffffff1660e01b815260040161176b949392919061200c565b602060405180830381600087803b15801561178557600080fd5b505af19250505080156117b657506040513d601f19601f820116820180604052508101906117b39190611c55565b60015b611839573d80600081146117e6576040519150601f19603f3d011682016040523d82523d6000602084013e6117eb565b606091505b50600081511415611831576040517f08c379a000000000000000000000000000000000000000000000000000000000815260040161182890612095565b60405180910390fd5b805181602001fd5b63150b7a0260e01b7bffffffffffffffffffffffffffffffffffffffffffffffffffffffff1916817bffffffffffffffffffffffffffffffffffffffffffffffffffffffff19161491505061188e565b600190505b949350505050565b600080823b905060008111915050919050565b8280546118b5906124ab565b90600052602060002090601f0160209004810192826118d7576000855561191e565b82601f106118f057805160ff191683800117855561191e565b8280016001018555821561191e579182015b8281111561191d578251825591602001919060010190611902565b5b50905061192b919061192f565b5090565b5b80821115611948576000816000905550600101611930565b5090565b600061195f61195a84612295565b612270565b90508281526020810184848401111561197757600080fd5b611982848285612469565b509392505050565b600061199d611998846122c6565b612270565b9050828152602081018484840111156119b557600080fd5b6119c0848285612469565b509392505050565b6000813590506119d781612a35565b92915050565b6000813590506119ec81612a4c565b92915050565b600081359050611a0181612a63565b92915050565b600081519050611a1681612a63565b92915050565b600082601f830112611a2d57600080fd5b8135611a3d84826020860161194c565b91505092915050565b600082601f830112611a5757600080fd5b8135611a6784826020860161198a565b91505092915050565b600081359050611a7f81612a7a565b92915050565b600060208284031215611a9757600080fd5b6000611aa5848285016119c8565b91505092915050565b60008060408385031215611ac157600080fd5b6000611acf858286016119c8565b9250506020611ae0858286016119c8565b9150509250929050565b600080600060608486031215611aff57600080fd5b6000611b0d868287016119c8565b9350506020611b1e868287016119c8565b9250506040611b2f86828701611a70565b9150509250925092565b60008060008060808587031215611b4f57600080fd5b6000611b5d878288016119c8565b9450506020611b6e878288016119c8565b9350506040611b7f87828801611a70565b925050606085013567ffffffffffffffff811115611b9c57600080fd5b611ba887828801611a1c565b91505092959194509250565b60008060408385031215611bc757600080fd5b6000611bd5858286016119c8565b9250506020611be6858286016119dd565b9150509250929050565b60008060408385031215611c0357600080fd5b6000611c11858286016119c8565b9250506020611c2285828601611a70565b9150509250929050565b600060208284031215611c3e57600080fd5b6000611c4c848285016119f2565b91505092915050565b600060208284031215611c6757600080fd5b6000611c7584828501611a07565b91505092915050565b60008060408385031215611c9157600080fd5b600083013567ffffffffffffffff811115611cab57600080fd5b611cb785828601611a46565b925050602083013567ffffffffffffffff811115611cd457600080fd5b611ce085828601611a46565b9150509250929050565b600060208284031215611cfc57600080fd5b6000611d0a84828501611a70565b91505092915050565b611d1c816123f5565b82525050565b611d2b81612407565b82525050565b6000611d3c826122f7565b611d46818561230d565b9350611d56818560208601612478565b611d5f81612644565b840191505092915050565b6000611d7582612302565b611d7f818561231e565b9350611d8f818560208601612478565b611d9881612644565b840191505092915050565b6000611dae82612302565b611db8818561232f565b9350611dc8818560208601612478565b80840191505092915050565b6000611de160328361231e565b9150611dec82612655565b604082019050919050565b6000611e04601c8361231e565b9150611e0f826126a4565b602082019050919050565b6000611e2760248361231e565b9150611e32826126cd565b604082019050919050565b6000611e4a60198361231e565b9150611e558261271c565b602082019050919050565b6000611e6d602c8361231e565b9150611e7882612745565b604082019050919050565b6000611e9060388361231e565b9150611e9b82612794565b604082019050919050565b6000611eb3602a8361231e565b9150611ebe826127e3565b604082019050919050565b6000611ed660298361231e565b9150611ee182612832565b604082019050919050565b6000611ef960208361231e565b9150611f0482612881565b602082019050919050565b6000611f1c602c8361231e565b9150611f27826128aa565b604082019050919050565b6000611f3f60298361231e565b9150611f4a826128f9565b604082019050919050565b6000611f62602f8361231e565b9150611f6d82612948565b604082019050919050565b6000611f8560218361231e565b9150611f9082612997565b604082019050919050565b6000611fa860318361231e565b9150611fb3826129e6565b604082019050919050565b611fc78161245f565b82525050565b6000611fd98285611da3565b9150611fe58284611da3565b91508190509392505050565b60006020820190506120066000830184611d13565b92915050565b60006080820190506120216000830187611d13565b61202e6020830186611d13565b61203b6040830185611fbe565b818103606083015261204d8184611d31565b905095945050505050565b600060208201905061206d6000830184611d22565b92915050565b6000602082019050818103600083015261208d8184611d6a565b905092915050565b600060208201905081810360008301526120ae81611dd4565b9050919050565b600060208201905081810360008301526120ce81611df7565b9050919050565b600060208201905081810360008301526120ee81611e1a565b9050919050565b6000602082019050818103600083015261210e81611e3d565b9050919050565b6000602082019050818103600083015261212e81611e60565b9050919050565b6000602082019050818103600083015261214e81611e83565b9050919050565b6000602082019050818103600083015261216e81611ea6565b9050919050565b6000602082019050818103600083015261218e81611ec9565b9050919050565b600060208201905081810360008301526121ae81611eec565b9050919050565b600060208201905081810360008301526121ce81611f0f565b9050919050565b600060208201905081810360008301526121ee81611f32565b9050919050565b6000602082019050818103600083015261220e81611f55565b9050919050565b6000602082019050818103600083015261222e81611f78565b9050919050565b6000602082019050818103600083015261224e81611f9b565b9050919050565b600060208201905061226a6000830184611fbe565b92915050565b600061227a61228b565b905061228682826124dd565b919050565b6000604051905090565b600067ffffffffffffffff8211156122b0576122af612615565b5b6122b982612644565b9050602081019050919050565b600067ffffffffffffffff8211156122e1576122e0612615565b5b6122ea82612644565b9050602081019050919050565b600081519050919050565b600081519050919050565b600082825260208201905092915050565b600082825260208201905092915050565b600081905092915050565b60006123458261245f565b91506123508361245f565b9250827fffffffffffffffffffffffffffffffffffffffffffffffffffffffffffffffff0382111561238557612384612588565b5b828201905092915050565b600061239b8261245f565b91506123a68361245f565b9250826123b6576123b56125b7565b5b828204905092915050565b60006123cc8261245f565b91506123d78361245f565b9250828210156123ea576123e9612588565b5b828203905092915050565b60006124008261243f565b9050919050565b60008115159050919050565b60007fffffffff0000000000000000000000000000000000000000000000000000000082169050919050565b600073ffffffffffffffffffffffffffffffffffffffff82169050919050565b6000819050919050565b82818337600083830152505050565b60005b8381101561249657808201518184015260208101905061247b565b838111156124a5576000848401525b50505050565b600060028204905060018216806124c357607f821691505b602082108114156124d7576124d66125e6565b5b50919050565b6124e682612644565b810181811067ffffffffffffffff8211171561250557612504612615565b5b80604052505050565b60006125198261245f565b91507fffffffffffffffffffffffffffffffffffffffffffffffffffffffffffffffff82141561254c5761254b612588565b5b600182019050919050565b60006125628261245f565b915061256d8361245f565b92508261257d5761257c6125b7565b5b828206905092915050565b7f4e487b7100000000000000000000000000000000000000000000000000000000600052601160045260246000fd5b7f4e487b7100000000000000000000000000000000000000000000000000000000600052601260045260246000fd5b7f4e487b7100000000000000000000000000000000000000000000000000000000600052602260045260246000fd5b7f4e487b7100000000000000000000000000000000000000000000000000000000600052604160045260246000fd5b6000601f19601f8301169050919050565b7f4552433732313a207472616e7366657220746f206e6f6e20455243373231526560008201527f63656976657220696d706c656d656e7465720000000000000000000000000000602082015250565b7f4552433732313a20746f6b656e20616c7265616479206d696e74656400000000600082015250565b7f4552433732313a207472616e7366657220746f20746865207a65726f2061646460008201527f7265737300000000000000000000000000000000000000000000000000000000602082015250565b7f4552433732313a20617070726f766520746f2063616c6c657200000000000000600082015250565b7f4552433732313a206f70657261746f7220717565727920666f72206e6f6e657860008201527f697374656e7420746f6b656e0000000000000000000000000000000000000000602082015250565b7f4552433732313a20617070726f76652063616c6c6572206973206e6f74206f7760008201527f6e6572206e6f7220617070726f76656420666f7220616c6c0000000000000000602082015250565b7f4552433732313a2062616c616e636520717565727920666f7220746865207a6560008201527f726f206164647265737300000000000000000000000000000000000000000000602082015250565b7f4552433732313a206f776e657220717565727920666f72206e6f6e657869737460008201527f656e7420746f6b656e0000000000000000000000000000000000000000000000602082015250565b7f4552433732313a206d696e7420746f20746865207a65726f2061646472657373600082015250565b7f4552433732313a20617070726f76656420717565727920666f72206e6f6e657860008201527f697374656e7420746f6b656e0000000000000000000000000000000000000000602082015250565b7f4552433732313a207472616e73666572206f6620746f6b656e2074686174206960008201527f73206e6f74206f776e0000000000000000000000000000000000000000000000602082015250565b7f4552433732314d657461646174613a2055524920717565727920666f72206e6f60008201527f6e6578697374656e7420746f6b656e0000000000000000000000000000000000602082015250565b7f4552433732313a20617070726f76616c20746f2063757272656e74206f776e6560008201527f7200000000000000000000000000000000000000000000000000000000000000602082015250565b7f4552433732313a207472616e736665722063616c6c6572206973206e6f74206f60008201527f776e6572206e6f7220617070726f766564000000000000000000000000000000602082015250565b612a3e816123f5565b8114612a4957600080fd5b50565b612a5581612407565b8114612a6057600080fd5b50565b612a6c81612413565b8114612a7757600080fd5b50565b612a838161245f565b8114612a8e57600080fd5b5056fea2646970667358221220058716f84c16b00afa7f066663feec43269beeb5c38e6853ade7332119bbc0fa64736f6c63430008040033",
  "immutableReferences": {},
  "source": "pragma solidity ^0.8.0;\r\n\r\nimport \"@openzeppelin/contracts/token/ERC721/ERC721.sol\";\r\n\r\ncontract PersonId is ERC721 {\r\n\r\n    string[] public names;\r\n    string[] public data;\r\n    uint256 public tokenCounter;\r\n\r\n    constructor() ERC721(\"PersonId\", \"PID\"){\r\n        tokenCounter = 1;\r\n    }\r\n\r\n    function mint(string memory _name, string memory _data) public {\r\n        names.push(_name);\r\n        data.push(_data);\r\n        _mint(msg.sender, tokenCounter);\r\n        tokenCounter++;\r\n    }\r\n}",
  "sourcePath": "D:/TOHacks2021/starter_kit/src/contracts/PersonId.sol",
  "compiler": {
    "name": "solc",
    "version": "0.8.4+commit.c7e474f2.Emscripten.clang"
  },
  "schemaVersion": "3.4.1",
  "updatedAt": "2021-05-09T08:39:11.073Z",
  "networkType": "ethereum",
  "devdoc": {
    "kind": "dev",
    "methods": {
      "approve(address,uint256)": {
        "details": "See {IERC721-approve}."
      },
      "balanceOf(address)": {
        "details": "See {IERC721-balanceOf}."
      },
      "getApproved(uint256)": {
        "details": "See {IERC721-getApproved}."
      },
      "isApprovedForAll(address,address)": {
        "details": "See {IERC721-isApprovedForAll}."
      },
      "name()": {
        "details": "See {IERC721Metadata-name}."
      },
      "ownerOf(uint256)": {
        "details": "See {IERC721-ownerOf}."
      },
      "safeTransferFrom(address,address,uint256)": {
        "details": "See {IERC721-safeTransferFrom}."
      },
      "safeTransferFrom(address,address,uint256,bytes)": {
        "details": "See {IERC721-safeTransferFrom}."
      },
      "setApprovalForAll(address,bool)": {
        "details": "See {IERC721-setApprovalForAll}."
      },
      "supportsInterface(bytes4)": {
        "details": "See {IERC165-supportsInterface}."
      },
      "symbol()": {
        "details": "See {IERC721Metadata-symbol}."
      },
      "tokenURI(uint256)": {
        "details": "See {IERC721Metadata-tokenURI}."
      },
      "transferFrom(address,address,uint256)": {
        "details": "See {IERC721-transferFrom}."
      }
    },
    "version": 1
  },
  "userdoc": {
    "kind": "user",
    "methods": {},
    "version": 1
  }
}