{
  "contractName": "PersonId",
  "abi": [
    {
      "inputs": [],
      "stateMutability": "nonpayable",
      "type": "constructor"
    },
    {
      "anonymous": false,
      "inputs": [
        {
          "indexed": true,
          "internalType": "address",
          "name": "owner",
          "type": "address"
        },
        {
          "indexed": true,
          "internalType": "address",
          "name": "approved",
          "type": "address"
        },
        {
          "indexed": true,
          "internalType": "uint256",
          "name": "tokenId",
          "type": "uint256"
        }
      ],
      "name": "Approval",
      "type": "event"
    },
    {
      "anonymous": false,
      "inputs": [
        {
          "indexed": true,
          "internalType": "address",
          "name": "owner",
          "type": "address"
        },
        {
          "indexed": true,
          "internalType": "address",
          "name": "operator",
          "type": "address"
        },
        {
          "indexed": false,
          "internalType": "bool",
          "name": "approved",
          "type": "bool"
        }
      ],
      "name": "ApprovalForAll",
      "type": "event"
    },
    {
      "anonymous": false,
      "inputs": [
        {
          "indexed": true,
          "internalType": "address",
          "name": "from",
          "type": "address"
        },
        {
          "indexed": true,
          "internalType": "address",
          "name": "to",
          "type": "address"
        },
        {
          "indexed": true,
          "internalType": "uint256",
          "name": "tokenId",
          "type": "uint256"
        }
      ],
      "name": "Transfer",
      "type": "event"
    },
    {
      "inputs": [
        {
          "internalType": "address",
          "name": "to",
          "type": "address"
        },
        {
          "internalType": "uint256",
          "name": "tokenId",
          "type": "uint256"
        }
      ],
      "name": "approve",
      "outputs": [],
      "stateMutability": "nonpayable",
      "type": "function"
    },
    {
      "inputs": [
        {
          "internalType": "address",
          "name": "owner",
          "type": "address"
        }
      ],
      "name": "balanceOf",
      "outputs": [
        {
          "internalType": "uint256",
          "name": "",
          "type": "uint256"
        }
      ],
      "stateMutability": "view",
      "type": "function",
      "constant": true
    },
    {
      "inputs": [
        {
          "internalType": "uint256",
          "name": "tokenId",
          "type": "uint256"
        }
      ],
      "name": "getApproved",
      "outputs": [
        {
          "internalType": "address",
          "name": "",
          "type": "address"
        }
      ],
      "stateMutability": "view",
      "type": "function",
      "constant": true
    },
    {
      "inputs": [
        {
          "internalType": "address",
          "name": "owner",
          "type": "address"
        },
        {
          "internalType": "address",
          "name": "operator",
          "type": "address"
        }
      ],
      "name": "isApprovedForAll",
      "outputs": [
        {
          "internalType": "bool",
          "name": "",
          "type": "bool"
        }
      ],
      "stateMutability": "view",
      "type": "function",
      "constant": true
    },
    {
      "inputs": [],
      "name": "name",
      "outputs": [
        {
          "internalType": "string",
          "name": "",
          "type": "string"
        }
      ],
      "stateMutability": "view",
      "type": "function",
      "constant": true
    },
    {
      "inputs": [
        {
          "internalType": "uint256",
          "name": "",
          "type": "uint256"
        }
      ],
      "name": "names",
      "outputs": [
        {
          "internalType": "string",
          "name": "",
          "type": "string"
        }
      ],
      "stateMutability": "view",
      "type": "function",
      "constant": true
    },
    {
      "inputs": [
        {
          "internalType": "uint256",
          "name": "tokenId",
          "type": "uint256"
        }
      ],
      "name": "ownerOf",
      "outputs": [
        {
          "internalType": "address",
          "name": "",
          "type": "address"
        }
      ],
      "stateMutability": "view",
      "type": "function",
      "constant": true
    },
    {
      "inputs": [
        {
          "internalType": "address",
          "name": "from",
          "type": "address"
        },
        {
          "internalType": "address",
          "name": "to",
          "type": "address"
        },
        {
          "internalType": "uint256",
          "name": "tokenId",
          "type": "uint256"
        }
      ],
      "name": "safeTransferFrom",
      "outputs": [],
      "stateMutability": "nonpayable",
      "type": "function"
    },
    {
      "inputs": [
        {
          "internalType": "address",
          "name": "from",
          "type": "address"
        },
        {
          "internalType": "address",
          "name": "to",
          "type": "address"
        },
        {
          "internalType": "uint256",
          "name": "tokenId",
          "type": "uint256"
        },
        {
          "internalType": "bytes",
          "name": "_data",
          "type": "bytes"
        }
      ],
      "name": "safeTransferFrom",
      "outputs": [],
      "stateMutability": "nonpayable",
      "type": "function"
    },
    {
      "inputs": [
        {
          "internalType": "address",
          "name": "operator",
          "type": "address"
        },
        {
          "internalType": "bool",
          "name": "approved",
          "type": "bool"
        }
      ],
      "name": "setApprovalForAll",
      "outputs": [],
      "stateMutability": "nonpayable",
      "type": "function"
    },
    {
      "inputs": [
        {
          "internalType": "bytes4",
          "name": "interfaceId",
          "type": "bytes4"
        }
      ],
      "name": "supportsInterface",
      "outputs": [
        {
          "internalType": "bool",
          "name": "",
          "type": "bool"
        }
      ],
      "stateMutability": "view",
      "type": "function",
      "constant": true
    },
    {
      "inputs": [],
      "name": "symbol",
      "outputs": [
        {
          "internalType": "string",
          "name": "",
          "type": "string"
        }
      ],
      "stateMutability": "view",
      "type": "function",
      "constant": true
    },
    {
      "inputs": [],
      "name": "tokenCounter",
      "outputs": [
        {
          "internalType": "uint256",
          "name": "",
          "type": "uint256"
        }
      ],
      "stateMutability": "view",
      "type": "function",
      "constant": true
    },
    {
      "inputs": [
        {
          "internalType": "uint256",
          "name": "tokenId",
          "type": "uint256"
        }
      ],
      "name": "tokenURI",
      "outputs": [
        {
          "internalType": "string",
          "name": "",
          "type": "string"
        }
      ],
      "stateMutability": "view",
      "type": "function",
      "constant": true
    },
    {
      "inputs": [
        {
          "internalType": "address",
          "name": "from",
          "type": "address"
        },
        {
          "internalType": "address",
          "name": "to",
          "type": "address"
        },
        {
          "internalType": "uint256",
          "name": "tokenId",
          "type": "uint256"
        }
      ],
      "name": "transferFrom",
      "outputs": [],
      "stateMutability": "nonpayable",
      "type": "function"
    },
    {
      "inputs": [
        {
          "internalType": "string",
          "name": "_name",
          "type": "string"
        }
      ],
      "name": "mint",
      "outputs": [],
      "stateMutability": "nonpayable",
      "type": "function"
    }
  ],
  "bytecode": "0x60806040523480156200001157600080fd5b506040518060400160405280600881526020017f506572736f6e49640000000000000000000000000000000000000000000000008152506040518060400160405280600381526020017f5049440000000000000000000000000000000000000000000000000000000000815250816000908051906020019062000096929190620000c0565b508060019080519060200190620000af929190620000c0565b5050506001600781905550620001d5565b828054620000ce9062000170565b90600052602060002090601f016020900481019282620000f257600085556200013e565b82601f106200010d57805160ff19168380011785556200013e565b828001600101855582156200013e579182015b828111156200013d57825182559160200191906001019062000120565b5b5090506200014d919062000151565b5090565b5b808211156200016c57600081600090555060010162000152565b5090565b600060028204905060018216806200018957607f821691505b60208210811415620001a0576200019f620001a6565b5b50919050565b7f4e487b7100000000000000000000000000000000000000000000000000000000600052602260045260246000fd5b61297880620001e56000396000f3fe608060405234801561001057600080fd5b50600436106101005760003560e01c806370a0823111610097578063c87b56dd11610066578063c87b56dd146102bd578063d082e381146102ed578063d85d3d271461030b578063e985e9c51461032757610100565b806370a082311461023757806395d89b4114610267578063a22cb46514610285578063b88d4fde146102a157610100565b806323b872dd116100d357806323b872dd1461019f57806342842e0e146101bb5780634622ab03146101d75780636352211e1461020757610100565b806301ffc9a71461010557806306fdde0314610135578063081812fc14610153578063095ea7b314610183575b600080fd5b61011f600480360381019061011a9190611b08565b610357565b60405161012c9190611f09565b60405180910390f35b61013d610439565b60405161014a9190611f24565b60405180910390f35b61016d60048036038101906101689190611b9b565b6104cb565b60405161017a9190611ea2565b60405180910390f35b61019d60048036038101906101989190611acc565b610550565b005b6101b960048036038101906101b491906119c6565b610668565b005b6101d560048036038101906101d091906119c6565b6106c8565b005b6101f160048036038101906101ec9190611b9b565b6106e8565b6040516101fe9190611f24565b60405180910390f35b610221600480360381019061021c9190611b9b565b610794565b60405161022e9190611ea2565b60405180910390f35b610251600480360381019061024c9190611961565b610846565b60405161025e9190612106565b60405180910390f35b61026f6108fe565b60405161027c9190611f24565b60405180910390f35b61029f600480360381019061029a9190611a90565b610990565b005b6102bb60048036038101906102b69190611a15565b610b11565b005b6102d760048036038101906102d29190611b9b565b610b73565b6040516102e49190611f24565b60405180910390f35b6102f5610c1a565b6040516103029190612106565b60405180910390f35b61032560048036038101906103209190611b5a565b610c20565b005b610341600480360381019061033c919061198a565b610c83565b60405161034e9190611f09565b60405180910390f35b60007f80ac58cd000000000000000000000000000000000000000000000000000000007bffffffffffffffffffffffffffffffffffffffffffffffffffffffff1916827bffffffffffffffffffffffffffffffffffffffffffffffffffffffff1916148061042257507f5b5e139f000000000000000000000000000000000000000000000000000000007bffffffffffffffffffffffffffffffffffffffffffffffffffffffff1916827bffffffffffffffffffffffffffffffffffffffffffffffffffffffff1916145b80610432575061043182610d17565b5b9050919050565b6060600080546104489061235c565b80601f01602080910402602001604051908101604052809291908181526020018280546104749061235c565b80156104c15780601f10610496576101008083540402835291602001916104c1565b820191906000526020600020905b8154815290600101906020018083116104a457829003601f168201915b5050505050905090565b60006104d682610d81565b610515576040517f08c379a000000000000000000000000000000000000000000000000000000000815260040161050c90612066565b60405180910390fd5b6004600083815260200190815260200160002060009054906101000a900473ffffffffffffffffffffffffffffffffffffffff169050919050565b600061055b82610794565b90508073ffffffffffffffffffffffffffffffffffffffff168373ffffffffffffffffffffffffffffffffffffffff1614156105cc576040517f08c379a00000000000000000000000000000000000000000000000000000000081526004016105c3906120c6565b60405180910390fd5b8073ffffffffffffffffffffffffffffffffffffffff166105eb610ded565b73ffffffffffffffffffffffffffffffffffffffff16148061061a575061061981610614610ded565b610c83565b5b610659576040517f08c379a000000000000000000000000000000000000000000000000000000000815260040161065090611fe6565b60405180910390fd5b6106638383610df5565b505050565b610679610673610ded565b82610eae565b6106b8576040517f08c379a00000000000000000000000000000000000000000000000000000000081526004016106af906120e6565b60405180910390fd5b6106c3838383610f8c565b505050565b6106e383838360405180602001604052806000815250610b11565b505050565b600681815481106106f857600080fd5b9060005260206000200160009150905080546107139061235c565b80601f016020809104026020016040519081016040528092919081815260200182805461073f9061235c565b801561078c5780601f106107615761010080835404028352916020019161078c565b820191906000526020600020905b81548152906001019060200180831161076f57829003601f168201915b505050505081565b6000806002600084815260200190815260200160002060009054906101000a900473ffffffffffffffffffffffffffffffffffffffff169050600073ffffffffffffffffffffffffffffffffffffffff168173ffffffffffffffffffffffffffffffffffffffff16141561083d576040517f08c379a000000000000000000000000000000000000000000000000000000000815260040161083490612026565b60405180910390fd5b80915050919050565b60008073ffffffffffffffffffffffffffffffffffffffff168273ffffffffffffffffffffffffffffffffffffffff1614156108b7576040517f08c379a00000000000000000000000000000000000000000000000000000000081526004016108ae90612006565b60405180910390fd5b600360008373ffffffffffffffffffffffffffffffffffffffff1673ffffffffffffffffffffffffffffffffffffffff168152602001908152602001600020549050919050565b60606001805461090d9061235c565b80601f01602080910402602001604051908101604052809291908181526020018280546109399061235c565b80156109865780601f1061095b57610100808354040283529160200191610986565b820191906000526020600020905b81548152906001019060200180831161096957829003601f168201915b5050505050905090565b610998610ded565b73ffffffffffffffffffffffffffffffffffffffff168273ffffffffffffffffffffffffffffffffffffffff161415610a06576040517f08c379a00000000000000000000000000000000000000000000000000000000081526004016109fd90611fa6565b60405180910390fd5b8060056000610a13610ded565b73ffffffffffffffffffffffffffffffffffffffff1673ffffffffffffffffffffffffffffffffffffffff16815260200190815260200160002060008473ffffffffffffffffffffffffffffffffffffffff1673ffffffffffffffffffffffffffffffffffffffff16815260200190815260200160002060006101000a81548160ff0219169083151502179055508173ffffffffffffffffffffffffffffffffffffffff16610ac0610ded565b73ffffffffffffffffffffffffffffffffffffffff167f17307eab39ab6107e8899845ad3d59bd9653f200f220920489ca2b5937696c3183604051610b059190611f09565b60405180910390a35050565b610b22610b1c610ded565b83610eae565b610b61576040517f08c379a0000000000000000000000000000000000000000000000000000000008152600401610b58906120e6565b60405180910390fd5b610b6d848484846111e8565b50505050565b6060610b7e82610d81565b610bbd576040517f08c379a0000000000000000000000000000000000000000000000000000000008152600401610bb4906120a6565b60405180910390fd5b6000610bc7611244565b90506000815111610be75760405180602001604052806000815250610c12565b80610bf18461125b565b604051602001610c02929190611e7e565b6040516020818303038152906040525b915050919050565b60075481565b600681908060018154018082558091505060019003906000526020600020016000909190919091509080519060200190610c5b929190611785565b50610c6833600754611408565b60076000815480929190610c7b906123bf565b919050555050565b6000600560008473ffffffffffffffffffffffffffffffffffffffff1673ffffffffffffffffffffffffffffffffffffffff16815260200190815260200160002060008373ffffffffffffffffffffffffffffffffffffffff1673ffffffffffffffffffffffffffffffffffffffff16815260200190815260200160002060009054906101000a900460ff16905092915050565b60007f01ffc9a7000000000000000000000000000000000000000000000000000000007bffffffffffffffffffffffffffffffffffffffffffffffffffffffff1916827bffffffffffffffffffffffffffffffffffffffffffffffffffffffff1916149050919050565b60008073ffffffffffffffffffffffffffffffffffffffff166002600084815260200190815260200160002060009054906101000a900473ffffffffffffffffffffffffffffffffffffffff1673ffffffffffffffffffffffffffffffffffffffff1614159050919050565b600033905090565b816004600083815260200190815260200160002060006101000a81548173ffffffffffffffffffffffffffffffffffffffff021916908373ffffffffffffffffffffffffffffffffffffffff160217905550808273ffffffffffffffffffffffffffffffffffffffff16610e6883610794565b73ffffffffffffffffffffffffffffffffffffffff167f8c5be1e5ebec7d5bd14f71427d1e84f3dd0314c0f7b2291e5b200ac8c7c3b92560405160405180910390a45050565b6000610eb982610d81565b610ef8576040517f08c379a0000000000000000000000000000000000000000000000000000000008152600401610eef90611fc6565b60405180910390fd5b6000610f0383610794565b90508073ffffffffffffffffffffffffffffffffffffffff168473ffffffffffffffffffffffffffffffffffffffff161480610f7257508373ffffffffffffffffffffffffffffffffffffffff16610f5a846104cb565b73ffffffffffffffffffffffffffffffffffffffff16145b80610f835750610f828185610c83565b5b91505092915050565b8273ffffffffffffffffffffffffffffffffffffffff16610fac82610794565b73ffffffffffffffffffffffffffffffffffffffff1614611002576040517f08c379a0000000000000000000000000000000000000000000000000000000008152600401610ff990612086565b60405180910390fd5b600073ffffffffffffffffffffffffffffffffffffffff168273ffffffffffffffffffffffffffffffffffffffff161415611072576040517f08c379a000000000000000000000000000000000000000000000000000000000815260040161106990611f86565b60405180910390fd5b61107d8383836115d6565b611088600082610df5565b6001600360008573ffffffffffffffffffffffffffffffffffffffff1673ffffffffffffffffffffffffffffffffffffffff16815260200190815260200160002060008282546110d89190612272565b925050819055506001600360008473ffffffffffffffffffffffffffffffffffffffff1673ffffffffffffffffffffffffffffffffffffffff168152602001908152602001600020600082825461112f91906121eb565b92505081905550816002600083815260200190815260200160002060006101000a81548173ffffffffffffffffffffffffffffffffffffffff021916908373ffffffffffffffffffffffffffffffffffffffff160217905550808273ffffffffffffffffffffffffffffffffffffffff168473ffffffffffffffffffffffffffffffffffffffff167fddf252ad1be2c89b69c2b068fc378daa952ba7f163c4a11628f55a4df523b3ef60405160405180910390a4505050565b6111f3848484610f8c565b6111ff848484846115db565b61123e576040517f08c379a000000000000000000000000000000000000000000000000000000000815260040161123590611f46565b60405180910390fd5b50505050565b606060405180602001604052806000815250905090565b606060008214156112a3576040518060400160405280600181526020017f30000000000000000000000000000000000000000000000000000000000000008152509050611403565b600082905060005b600082146112d55780806112be906123bf565b915050600a826112ce9190612241565b91506112ab565b60008167ffffffffffffffff811115611317577f4e487b7100000000000000000000000000000000000000000000000000000000600052604160045260246000fd5b6040519080825280601f01601f1916602001820160405280156113495781602001600182028036833780820191505090505b5090505b600085146113fc576001826113629190612272565b9150600a856113719190612408565b603061137d91906121eb565b60f81b8183815181106113b9577f4e487b7100000000000000000000000000000000000000000000000000000000600052603260045260246000fd5b60200101907effffffffffffffffffffffffffffffffffffffffffffffffffffffffffffff1916908160001a905350600a856113f59190612241565b945061134d565b8093505050505b919050565b600073ffffffffffffffffffffffffffffffffffffffff168273ffffffffffffffffffffffffffffffffffffffff161415611478576040517f08c379a000000000000000000000000000000000000000000000000000000000815260040161146f90612046565b60405180910390fd5b61148181610d81565b156114c1576040517f08c379a00000000000000000000000000000000000000000000000000000000081526004016114b890611f66565b60405180910390fd5b6114cd600083836115d6565b6001600360008473ffffffffffffffffffffffffffffffffffffffff1673ffffffffffffffffffffffffffffffffffffffff168152602001908152602001600020600082825461151d91906121eb565b92505081905550816002600083815260200190815260200160002060006101000a81548173ffffffffffffffffffffffffffffffffffffffff021916908373ffffffffffffffffffffffffffffffffffffffff160217905550808273ffffffffffffffffffffffffffffffffffffffff16600073ffffffffffffffffffffffffffffffffffffffff167fddf252ad1be2c89b69c2b068fc378daa952ba7f163c4a11628f55a4df523b3ef60405160405180910390a45050565b505050565b60006115fc8473ffffffffffffffffffffffffffffffffffffffff16611772565b15611765578373ffffffffffffffffffffffffffffffffffffffff1663150b7a02611625610ded565b8786866040518563ffffffff1660e01b81526004016116479493929190611ebd565b602060405180830381600087803b15801561166157600080fd5b505af192505050801561169257506040513d601f19601f8201168201806040525081019061168f9190611b31565b60015b611715573d80600081146116c2576040519150601f19603f3d011682016040523d82523d6000602084013e6116c7565b606091505b5060008151141561170d576040517f08c379a000000000000000000000000000000000000000000000000000000000815260040161170490611f46565b60405180910390fd5b805181602001fd5b63150b7a0260e01b7bffffffffffffffffffffffffffffffffffffffffffffffffffffffff1916817bffffffffffffffffffffffffffffffffffffffffffffffffffffffff19161491505061176a565b600190505b949350505050565b600080823b905060008111915050919050565b8280546117919061235c565b90600052602060002090601f0160209004810192826117b357600085556117fa565b82601f106117cc57805160ff19168380011785556117fa565b828001600101855582156117fa579182015b828111156117f95782518255916020019190600101906117de565b5b509050611807919061180b565b5090565b5b8082111561182457600081600090555060010161180c565b5090565b600061183b61183684612146565b612121565b90508281526020810184848401111561185357600080fd5b61185e84828561231a565b509392505050565b600061187961187484612177565b612121565b90508281526020810184848401111561189157600080fd5b61189c84828561231a565b509392505050565b6000813590506118b3816128e6565b92915050565b6000813590506118c8816128fd565b92915050565b6000813590506118dd81612914565b92915050565b6000815190506118f281612914565b92915050565b600082601f83011261190957600080fd5b8135611919848260208601611828565b91505092915050565b600082601f83011261193357600080fd5b8135611943848260208601611866565b91505092915050565b60008135905061195b8161292b565b92915050565b60006020828403121561197357600080fd5b6000611981848285016118a4565b91505092915050565b6000806040838503121561199d57600080fd5b60006119ab858286016118a4565b92505060206119bc858286016118a4565b9150509250929050565b6000806000606084860312156119db57600080fd5b60006119e9868287016118a4565b93505060206119fa868287016118a4565b9250506040611a0b8682870161194c565b9150509250925092565b60008060008060808587031215611a2b57600080fd5b6000611a39878288016118a4565b9450506020611a4a878288016118a4565b9350506040611a5b8782880161194c565b925050606085013567ffffffffffffffff811115611a7857600080fd5b611a84878288016118f8565b91505092959194509250565b60008060408385031215611aa357600080fd5b6000611ab1858286016118a4565b9250506020611ac2858286016118b9565b9150509250929050565b60008060408385031215611adf57600080fd5b6000611aed858286016118a4565b9250506020611afe8582860161194c565b9150509250929050565b600060208284031215611b1a57600080fd5b6000611b28848285016118ce565b91505092915050565b600060208284031215611b4357600080fd5b6000611b51848285016118e3565b91505092915050565b600060208284031215611b6c57600080fd5b600082013567ffffffffffffffff811115611b8657600080fd5b611b9284828501611922565b91505092915050565b600060208284031215611bad57600080fd5b6000611bbb8482850161194c565b91505092915050565b611bcd816122a6565b82525050565b611bdc816122b8565b82525050565b6000611bed826121a8565b611bf781856121be565b9350611c07818560208601612329565b611c10816124f5565b840191505092915050565b6000611c26826121b3565b611c3081856121cf565b9350611c40818560208601612329565b611c49816124f5565b840191505092915050565b6000611c5f826121b3565b611c6981856121e0565b9350611c79818560208601612329565b80840191505092915050565b6000611c926032836121cf565b9150611c9d82612506565b604082019050919050565b6000611cb5601c836121cf565b9150611cc082612555565b602082019050919050565b6000611cd86024836121cf565b9150611ce38261257e565b604082019050919050565b6000611cfb6019836121cf565b9150611d06826125cd565b602082019050919050565b6000611d1e602c836121cf565b9150611d29826125f6565b604082019050919050565b6000611d416038836121cf565b9150611d4c82612645565b604082019050919050565b6000611d64602a836121cf565b9150611d6f82612694565b604082019050919050565b6000611d876029836121cf565b9150611d92826126e3565b604082019050919050565b6000611daa6020836121cf565b9150611db582612732565b602082019050919050565b6000611dcd602c836121cf565b9150611dd88261275b565b604082019050919050565b6000611df06029836121cf565b9150611dfb826127aa565b604082019050919050565b6000611e13602f836121cf565b9150611e1e826127f9565b604082019050919050565b6000611e366021836121cf565b9150611e4182612848565b604082019050919050565b6000611e596031836121cf565b9150611e6482612897565b604082019050919050565b611e7881612310565b82525050565b6000611e8a8285611c54565b9150611e968284611c54565b91508190509392505050565b6000602082019050611eb76000830184611bc4565b92915050565b6000608082019050611ed26000830187611bc4565b611edf6020830186611bc4565b611eec6040830185611e6f565b8181036060830152611efe8184611be2565b905095945050505050565b6000602082019050611f1e6000830184611bd3565b92915050565b60006020820190508181036000830152611f3e8184611c1b565b905092915050565b60006020820190508181036000830152611f5f81611c85565b9050919050565b60006020820190508181036000830152611f7f81611ca8565b9050919050565b60006020820190508181036000830152611f9f81611ccb565b9050919050565b60006020820190508181036000830152611fbf81611cee565b9050919050565b60006020820190508181036000830152611fdf81611d11565b9050919050565b60006020820190508181036000830152611fff81611d34565b9050919050565b6000602082019050818103600083015261201f81611d57565b9050919050565b6000602082019050818103600083015261203f81611d7a565b9050919050565b6000602082019050818103600083015261205f81611d9d565b9050919050565b6000602082019050818103600083015261207f81611dc0565b9050919050565b6000602082019050818103600083015261209f81611de3565b9050919050565b600060208201905081810360008301526120bf81611e06565b9050919050565b600060208201905081810360008301526120df81611e29565b9050919050565b600060208201905081810360008301526120ff81611e4c565b9050919050565b600060208201905061211b6000830184611e6f565b92915050565b600061212b61213c565b9050612137828261238e565b919050565b6000604051905090565b600067ffffffffffffffff821115612161576121606124c6565b5b61216a826124f5565b9050602081019050919050565b600067ffffffffffffffff821115612192576121916124c6565b5b61219b826124f5565b9050602081019050919050565b600081519050919050565b600081519050919050565b600082825260208201905092915050565b600082825260208201905092915050565b600081905092915050565b60006121f682612310565b915061220183612310565b9250827fffffffffffffffffffffffffffffffffffffffffffffffffffffffffffffffff0382111561223657612235612439565b5b828201905092915050565b600061224c82612310565b915061225783612310565b92508261226757612266612468565b5b828204905092915050565b600061227d82612310565b915061228883612310565b92508282101561229b5761229a612439565b5b828203905092915050565b60006122b1826122f0565b9050919050565b60008115159050919050565b60007fffffffff0000000000000000000000000000000000000000000000000000000082169050919050565b600073ffffffffffffffffffffffffffffffffffffffff82169050919050565b6000819050919050565b82818337600083830152505050565b60005b8381101561234757808201518184015260208101905061232c565b83811115612356576000848401525b50505050565b6000600282049050600182168061237457607f821691505b6020821081141561238857612387612497565b5b50919050565b612397826124f5565b810181811067ffffffffffffffff821117156123b6576123b56124c6565b5b80604052505050565b60006123ca82612310565b91507fffffffffffffffffffffffffffffffffffffffffffffffffffffffffffffffff8214156123fd576123fc612439565b5b600182019050919050565b600061241382612310565b915061241e83612310565b92508261242e5761242d612468565b5b828206905092915050565b7f4e487b7100000000000000000000000000000000000000000000000000000000600052601160045260246000fd5b7f4e487b7100000000000000000000000000000000000000000000000000000000600052601260045260246000fd5b7f4e487b7100000000000000000000000000000000000000000000000000000000600052602260045260246000fd5b7f4e487b7100000000000000000000000000000000000000000000000000000000600052604160045260246000fd5b6000601f19601f8301169050919050565b7f4552433732313a207472616e7366657220746f206e6f6e20455243373231526560008201527f63656976657220696d706c656d656e7465720000000000000000000000000000602082015250565b7f4552433732313a20746f6b656e20616c7265616479206d696e74656400000000600082015250565b7f4552433732313a207472616e7366657220746f20746865207a65726f2061646460008201527f7265737300000000000000000000000000000000000000000000000000000000602082015250565b7f4552433732313a20617070726f766520746f2063616c6c657200000000000000600082015250565b7f4552433732313a206f70657261746f7220717565727920666f72206e6f6e657860008201527f697374656e7420746f6b656e0000000000000000000000000000000000000000602082015250565b7f4552433732313a20617070726f76652063616c6c6572206973206e6f74206f7760008201527f6e6572206e6f7220617070726f76656420666f7220616c6c0000000000000000602082015250565b7f4552433732313a2062616c616e636520717565727920666f7220746865207a6560008201527f726f206164647265737300000000000000000000000000000000000000000000602082015250565b7f4552433732313a206f776e657220717565727920666f72206e6f6e657869737460008201527f656e7420746f6b656e0000000000000000000000000000000000000000000000602082015250565b7f4552433732313a206d696e7420746f20746865207a65726f2061646472657373600082015250565b7f4552433732313a20617070726f76656420717565727920666f72206e6f6e657860008201527f697374656e7420746f6b656e0000000000000000000000000000000000000000602082015250565b7f4552433732313a207472616e73666572206f6620746f6b656e2074686174206960008201527f73206e6f74206f776e0000000000000000000000000000000000000000000000602082015250565b7f4552433732314d657461646174613a2055524920717565727920666f72206e6f60008201527f6e6578697374656e7420746f6b656e0000000000000000000000000000000000602082015250565b7f4552433732313a20617070726f76616c20746f2063757272656e74206f776e6560008201527f7200000000000000000000000000000000000000000000000000000000000000602082015250565b7f4552433732313a207472616e736665722063616c6c6572206973206e6f74206f60008201527f776e6572206e6f7220617070726f766564000000000000000000000000000000602082015250565b6128ef816122a6565b81146128fa57600080fd5b50565b612906816122b8565b811461291157600080fd5b50565b61291d816122c4565b811461292857600080fd5b50565b61293481612310565b811461293f57600080fd5b5056fea26469706673582212200d600d737d8d233be28b64935f0f14f435cfd8fed5374df07684f3ed45984bc964736f6c63430008040033",
  "immutableReferences": {},
  "source": "pragma solidity ^0.8.0;\r\n\r\nimport \"@openzeppelin/contracts/token/ERC721/ERC721.sol\";\r\n\r\ncontract PersonId is ERC721 {\r\n\r\n    string[] public names;\r\n    uint256 public tokenCounter;\r\n\r\n    constructor() ERC721(\"PersonId\", \"PID\"){\r\n        tokenCounter = 1;\r\n    }\r\n\r\n    function mint(string memory _name) public {\r\n        names.push(_name);\r\n        _mint(msg.sender, tokenCounter);\r\n        tokenCounter++;\r\n    }\r\n}",
  "sourcePath": "D:/TOHacks2021/starter_kit/src/contracts/PersonId.sol",
  "compiler": {
    "name": "solc",
    "version": "0.8.4+commit.c7e474f2.Emscripten.clang"
  },
  "schemaVersion": "3.4.1",
  "updatedAt": "2021-05-09T00:39:51.905Z",
  "networkType": "ethereum",
  "devdoc": {
    "kind": "dev",
    "methods": {
      "approve(address,uint256)": {
        "details": "See {IERC721-approve}."
      },
      "balanceOf(address)": {
        "details": "See {IERC721-balanceOf}."
      },
      "getApproved(uint256)": {
        "details": "See {IERC721-getApproved}."
      },
      "isApprovedForAll(address,address)": {
        "details": "See {IERC721-isApprovedForAll}."
      },
      "name()": {
        "details": "See {IERC721Metadata-name}."
      },
      "ownerOf(uint256)": {
        "details": "See {IERC721-ownerOf}."
      },
      "safeTransferFrom(address,address,uint256)": {
        "details": "See {IERC721-safeTransferFrom}."
      },
      "safeTransferFrom(address,address,uint256,bytes)": {
        "details": "See {IERC721-safeTransferFrom}."
      },
      "setApprovalForAll(address,bool)": {
        "details": "See {IERC721-setApprovalForAll}."
      },
      "supportsInterface(bytes4)": {
        "details": "See {IERC165-supportsInterface}."
      },
      "symbol()": {
        "details": "See {IERC721Metadata-symbol}."
      },
      "tokenURI(uint256)": {
        "details": "See {IERC721Metadata-tokenURI}."
      },
      "transferFrom(address,address,uint256)": {
        "details": "See {IERC721-transferFrom}."
      }
    },
    "version": 1
  },
  "userdoc": {
    "kind": "user",
    "methods": {},
    "version": 1
  }
}